:020000040800F2
:100000000028002085150008F5140008FD140008DC
:10001000051500080D150008151500080000000062
:100020000000000000000000000000001D15000896
:1000300029150008000000003515000841150008CA
:10004000CD150008CD150008CD150008CD15000808
:10005000CD150008CD150008CD150008CD150008F8
:10006000CD150008CD150008CD150008CD150008E8
:10007000CD150008CD150008CD150008CD150008D8
:10008000CD150008CD150008CD15000800000000B2
:10009000000000000000000000000000CD15000876
:1000A0000000000000000000000000000000000050
:1000B0004D150008CD150008CD150008CD15000818
:1000C000CD150008CD150008CD150008CD15000888
:1000D000CD150008CD150008CD150008CD15000878
:1000E000CD150008CD15000800000000000000003C
:1000F0000000000000000000000000000000000000
:0C01000000000000000000005FF808F1A3
:10010C0010B5054C237833B9044B13B10448AFF345
:10011C0000800123237010BD4C0000200000000063
:10012C00042C000808B5034B1BB103490348AFF37B
:10013C00008008BD0000000050000020042C0008C6
:10014C0080B582B000AF78607B68092B00F28081AB
:10015C0001A252F823F000BF8D010008D501000860
:10016C001D02000865020008AD020008F502000837
:10017C003D03000885030008CD03000815040008A2
:10018C0000220121B54801F028FD00220221B348CC
:10019C0001F023FD00220421B04801F01EFD0022D5
:1001AC000821AE4801F019FD00221021AB4801F0E6
:1001BC0014FD00222021A94801F00FFD012240214D
:1001CC00A64801F00AFD44E101220121A34801F0F7
:1001DC0004FD00220221A14801F0FFFC00220421B1
:1001EC009E4801F0FAFC012208219C4801F0F5FC24
:1001FC0001221021994801F0F0FC0122202197489E
:10020C0001F0EBFC01224021944801F0E6FC20E1D6
:10021C0000220121914801F0E0FC002202218F48CC
:10022C0001F0DBFC012204218C4801F0D6FC0022F9
:10023C0008218A4801F0D1FC00221021874801F0E6
:10024C00CCFC01222021854801F0C7FC0022402172
:10025C00824801F0C2FCFCE0002201217F4801F041
:10026C00BCFC002202217D4801F0B7FC00220421D5
:10027C007A4801F0B2FC00220821784801F0ADFC6C
:10028C0001221021754801F0A8FC0122202173489D
:10029C0001F0A3FC00224021704801F09EFCD8E044
:1002AC00012201216D4801F098FC002202216B48CB
:1002BC0001F093FC00220421684801F08EFC01221D
:1002CC000821664801F089FC01221021634801F0E5
:1002DC0084FC00222021614801F07FFC0022402197
:1002EC005E4801F07AFCB4E0002201215B4801F089
:1002FC0074FC01220221594801F06FFC00220421F8
:10030C00564801F06AFC00220821544801F065FCB3
:10031C0001221021514801F060FC002220214F489D
:10032C0001F05BFC002240214C4801F056FC90E0AF
:10033C0000220121494801F050FC012202214748CA
:10034C0001F04BFC00220421444801F046FC002241
:10035C000821424801F041FC002210213F4801F0E5
:10036C003CFC002220213D4801F037FC00224021BA
:10037C003A4801F032FC6CE000220121374801F0D0
:10038C002CFC00220221354801F027FC002204211C
:10039C00324801F022FC01220821304801F01DFCFA
:1003AC00012210212D4801F018FC012220212B489C
:1003BC0001F013FC01224021284801F00EFC48E01A
:1003CC0000220121254801F008FC002202212348CB
:1003DC0001F003FC00220421204801F0FEFB002266
:1003EC0008211E4801F0F9FB002210211B4801F0E6
:1003FC00F4FB00222021194801F0EFFB00224021E0
:10040C00164801F0EAFB24E000220121134801F018
:10041C00E4FB00220221114801F0DFFB0022042141
:10042C000E4801F0DAFB002208210C4801F0D5FB44
:10043C0001221021094801F0D0FB0022202107489D
:10044C0001F0CBFB00224021044801F0C6FB00E088
:10045C0000BF00BF0837BD4680BD00BF000C014087
:10046C0080B500AF012280210B4801F0B6FB0122C0
:10047C004FF48071084801F0B0FB01224FF4007179
:10048C00054801F0AAFB01224FF48061024801F0FB
:10049C00A4FB00BF80BD00BF000C014080B500AFC5
:1004AC00002280210B4801F098FB01224FF480714F
:1004BC00084801F092FB01224FF40071054801F04D
:1004CC008CFB01224FF48061024801F086FB00BFD7
:1004DC0080BD00BF000C014080B500AF012280211F
:1004EC000B4801F07AFB00224FF48071084801F0B0
:1004FC0074FB01224FF40071054801F06EFB0122E0
:10050C004FF48061024801F068FB00BF80BD00BF62
:10051C00000C014080B500AF012280210B4801F096
:10052C005CFB01224FF48071084801F056FB00225D
:10053C004FF40071054801F050FB01224FF480612B
:10054C00024801F04AFB00BF80BD00BF000C014017
:10055C0080B500AF012280210B4801F03EFB012247
:10056C004FF48071084801F038FB01224FF4007100
:10057C00054801F032FB00224FF48061024801F083
:10058C002CFB00BF80BD00BF000C014080B584B0C7
:10059C0000AF78607B68154A82FB03129210DB1760
:1005AC00D31AFB607A68114B83FB02139910D31793
:1005BC00C91A0B469B000B445B00D31ABB600C4B57
:1005CC001B68002B04D1F868FFF7BAFDFFF766FF34
:1005DC00074B1B68012B04D1B868FFF7B1FDFFF77F
:1005EC007BFF00BF1037BD4680BD00BF67666666E7
:1005FC008000002080B584B000AF78607B68154A1D
:10060C0082FB03129210DB17D31AFB607A68114B32
:10061C0083FB02139910D317C91A0B469B000B448A
:10062C005B00D31ABB600C4B1B68022B04D1F8681F
:10063C00FFF786FDFFF76EFF074B1B68032B04D1FA
:10064C00B868FFF77DFDFFF783FF00BF1037BD468D
:10065C0080BD00BF676666668000002080B400AF76
:10066C000C4B1B6801330B4A13600A4B1B68032BA2
:10067C000CDD094B1B68013B074A1360074B1B68D9
:10068C00013B064A1360034B00221A6000BFBD46B3
:10069C0080BC704780000020780000207C00002087
:1006AC0080B500AF754B1B68042B00F2DC8001A2F7
:1006BC0052F823F0D5060008190700086D0700084A
:1006CC00C7070008190800086C4B01221A606C4B14
:1006DC001B686C4A13606C4B1B686C4A13606C4B48
:1006EC001B686C4A1360664B1B686B4A1360684B43
:1006FC001B686A4A1360684B1B681846FFF746FF75
:10070C00664B1B681846FFF775FFB5E000F02AFB37
:10071C0000F0A0FBFFF7A2FF604B1B68002B06D17B
:10072C00564B02221A60584B1B685C4A13605A4B9A
:10073C001B681846FFF72AFF584B1B681846FFF733
:10074C0059FF002000F0C4FA0346002B00F08D8006
:10075C004A4B0A221A6000F095FBFFF781FE84E0F9
:10076C0000F000FB00F046FBFFF778FF4A4B1B68DC
:10077C00002B0AD1414B03221A60454B1B68464A99
:10078C0013603F4B1B68454A1360434B1B6818466C
:10079C00FFF7FCFE414B1B681846FFF72BFF0020B0
:1007AC0000F096FA0346002B61D0344B0A221A60F3
:1007BC0000F068FBFFF754FE59E000F033FB00F04B
:1007CC00E9FAFFF74BFF344B1B68002B06D12B4B80
:1007DC0004221A602C4B1B682F4A13602E4B1B688B
:1007EC001846FFF7D3FE2D4B1B681846FFF702FF88
:1007FC00002000F06DFA0346002B3AD01F4B0A2262
:10080C001A6000F03FFBFFF72BFE32E000F0DAFA43
:10081C0000F0C0FAFFF722FF1F4B1B68002B0AD118
:10082C00164B01221A60164B1B681B4A1360184B9F
:10083C001B681A4A1360184B1B681846FFF7A6FE74
:10084C00164B1B681846FFF7D5FE002000F040FA47
:10085C000346002B0FD0094B0A221A6000F012FB42
:10086C00FFF7FEFD07E000BF06E000BF04E000BF9D
:10087C0002E000BF00E000BF00BF80BD68000020A8
:10088C00000000206C0000200400002070000020FC
:10089C000800002074000020780000207C0000205C
:1008AC0080B500AF444B1B680C2B54D00C2B79DC5F
:1008BC000A2B02D00B2B27D074E0404B1B68194637
:1008CC00022000F027F9002000F002FA0346002B6A
:1008DC0004D0394B0B221A6000F0D4FA012000F03E
:1008EC00F7F90346002B5FD0334B14221A60344BBC
:1008FC001B680133324A1360314B1B68632B53DD89
:10090C002F4B01221A604FE02E4B1B681946032017
:10091C0000F000F9002000F0DBF90346002B04D0B6
:10092C00254B0C221A6000F0ADFA012000F0D0F932
:10093C000346002B3AD0204B15221A60224B1B6821
:10094C000133214A1360204B1B68632B2EDD1E4B99
:10095C0001221A602AE01D4B1B681946042000F086
:10096C00D9F8002000F0B4F90346002B04D0124B48
:10097C0000221A6000F086FA012000F0A9F9034663
:10098C00002B15D00C4B16221A60114B1B6801332F
:10099C000F4A13600E4B1B68632B09DD0C4B0122B5
:1009AC001A6005E000BF04E000BF02E000BF00E0F9
:1009BC0000BF00BF80BD00BF680000200000002009
:1009CC006C000020040000207000002008000020B3
:1009DC007400002080B500AF474B1B68162B58D015
:1009EC00162B7FDC142B02D0152B29D07AE0434B2D
:1009FC001B681946022000F08DF8002000F068F901
:100A0C00012000F065F90346002B0BD03B4B1B6813
:100A1C0001333A4A1360394B1B68632B02DD374BA9
:100A2C0001221A60022000F053F90346002B5BD020
:100A3C00324B1B68324A13602F4B0A221A6053E068
:100A4C00304B1B681946032000F064F8002000F0BE
:100A5C003FF9012000F03CF90346002B0BD0294B49
:100A6C001B680133274A1360264B1B68632B02DD7E
:100A7C00244B01221A60022000F02AF90346002BB5
:100A8C0034D0204B1B68204A13601B4B0B221A607E
:100A9C002CE01E4B1B681946042000F03BF800208C
:100AAC0000F016F9012000F013F90346002B0BD0CF
:100ABC00164B1B680133154A1360144B1B68632BD0
:100ACC0002DD124B01221A60022000F001F90346EC
:100ADC00002B0DD00D4B1B680D4A1360064B0C22DE
:100AEC001A6005E000BF04E000BF02E000BF00E0B8
:100AFC0000BF00BF80BD00BF680000206C0000205C
:100B0C000000002070000020040000207400002071
:100B1C000800002080B582B000AF78603960164BB9
:100B2C001B680133144A1360134B1B68032B02DD43
:100B3C00114B00221A60104B1B6803F00103002BB1
:100B4C0010D17B68022B02D100F0DCF80AE07B6844
:100B5C00032B02D100F0E6F804E07B68042B01D1F2
:100B6C0000F0F0F87868FFF711FD3868FFF742FDE8
:100B7C0000BF0837BD4680BD8000002080B582B024
:100B8C0000AF0023FB718CE0FA79FB79494951F8ED
:100B9C002220494941F82320FA79FB79474951F839
:100BAC002220444941F82320FB79002B0BD1102142
:100BBC00434800F0FBFF03461A46FB7911463F4AB7
:100BCC0042F823101CE0FB79012B0BD120213C486F
:100BDC0000F0ECFF03461A46FB791146374A42F8FF
:100BEC0023100DE0FB79022B0AD14021344800F090
:100BFC00DDFF03461A46FB791146304A42F82310B2
:100C0C00FB792E4A52F82320FB792A4951F82330DC
:100C1C009A4243D1FB79274A52F82320FB79264983
:100C2C0051F823309A4239D1FB79244A52F82320C7
:100C3C00FB79244951F823309A422FD0FA79FB7969
:100C4C001E4951F822201F4941F82320FB791B4AE9
:100C5C0052F82330002B09D11B4B4FF4FA721A6057
:100C6C00FB791A4A012142F8231017E0164B1B6836
:100C7C00013B154A1360144B1B68002B0ED1124B11
:100C8C004FF4FA721A60FB790C4A52F82330002B9D
:100C9C0004D1FB790D4A012142F82310FB79013371
:100CAC00FB71FB79022B7FF66FAF00BF00BF0837DB
:100CBC00BD4680BD1C000020280000201000002034
:100CCC0000080140340000200C00002084000020AB
:100CDC0080B483B000AF7860094A7B6852F8233047
:100CEC00012B06D1064A7B68002142F82310012310
:100CFC0000E0002318460C37BD4680BC704700BF8F
:100D0C008400002080B500AF4FF48061044800F0EF
:100D1C007CFF8021024800F078FF00BF80BD00BF3F
:100D2C000008014080B500AF4FF40061044800F0AA
:100D3C006CFF4FF48071024800F067FF00BF80BD6C
:100D4C000008014080B500AF4FF48051044800F01A
:100D5C005CFF4FF40071024800F057FF00BF80BDEC
:100D6C000008014080B500AF01224FF480610848B3
:100D7C0000F033FF00224FF40061054800F02DFF16
:100D8C0000224FF48051024800F027FF00BF80BDC5
:100D9C000008014080B500AF01228021084800F016
:100DAC001CFF00224FF48071054800F016FF002252
:100DBC004FF40071024800F010FF00BF80BD00BF6F
:100DCC000008014080B500AF00224FF48061084854
:100DDC0000F003FF01224FF40061054800F0FDFE16
:100DEC0000224FF48051024800F0F7FE00BF80BD96
:100DFC000008014080B500AF00228021084800F0B7
:100E0C00ECFE01224FF48071054800F0E6FE002252
:100E1C004FF40071024800F0E0FE00BF80BD00BF3F
:100E2C000008014080B500AF00224FF480610848F3
:100E3C0000F0D3FE00224FF40061054800F0CDFE17
:100E4C0001224FF48051024800F0C7FE00BF80BD64
:100E5C000008014080B500AF00228021084800F056
:100E6C00BCFE00224FF48071054800F0B6FE012252
:100E7C004FF40071024800F0B0FE00BF80BD00BF0F
:100E8C000008014080B500AF00224FF4806111488A
:100E9C0000F0A3FE00224FF400610E4800F09DFE0E
:100EAC0000224FF480510B4800F097FE0022802165
:100EBC00084800F092FE00224FF48071054800F0C3
:100ECC008CFE00224FF40071024800F086FE00BF39
:100EDC0080BD00BF0008014080B500AF00F072FB80
:100EEC0000F046F800F0CCF800F07EF8164801F05F
:100EFC00D3FA164B00221A60154B05221A60154BBB
:100F0C0002221A60144B03221A6000F02BF94FF4E2
:100F1C00FA720021114800F0F7F9FA22FA21104870
:100F2C0000F0F2F9FA22FA210E4800F0EDF9FA225B
:100F3C00FA210D4800F0E8F90A220A210B4800F0CA
:100F4C00E3F900F095F9FCE7900000206800002020
:100F5C000000002004000020080000206D1500088F
:100F6C00AD060008AD080008E1090008890B00086F
:100F7C0080B590B000AF07F1180328220021184665
:100F8C0001F00EFE3B1D00221A605A609A60DA6076
:100F9C001A610223BB610123BB621023FB62002395
:100FAC007B6307F11803184600F048FE0346002B3C
:100FBC0001D000F0D1F80F237B600023BB6000232D
:100FCC00FB6000233B6100237B613B1D0021184625
:100FDC0001F0B6F80346002B01D000F0BDF800BFBD
:100FEC004037BD4680BD000080B586B000AF07F12C
:100FFC00080300221A605A609A60DA603B460022AD
:10100C001A605A601D4B4FF080421A601B4B41F620
:10101C003F725A60194B00229A60184B0922DA6011
:10102C00164B00221A61154B00229A61134801F0ED
:10103C00E3F90346002B01D000F08EF84FF48053F7
:10104C00BB6007F1080319460C4801F061FB03462D
:10105C00002B01D000F080F800233B6000237B6064
:10106C003B461946054801F031FD0346002B01D0E3
:10107C0000F072F800BF1837BD4680BD900000200C
:10108C0080B586B000AF07F1080300221A605A60E1
:10109C009A60DA60284B9B69274A43F004039361FA
:1010AC00254B9B6903F004037B607B68224B9B6997
:1010BC00214A43F0080393611F4B9B6903F008031B
:1010CC003B603B6800224FF47E511C4800F085FDCC
:1010DC00002240F2FF711A4800F07FFD7023BB60C4
:1010EC000023FB6001233B6107F1080319461348F9
:1010FC0000F0D8FB4FF47E53BB600123FB60002350
:10110C003B6102237B6107F1080319460B4800F091
:10111C00C9FB40F2FF73BB600123FB6000233B6102
:10112C0002237B6107F108031946054800F0BAFB5E
:10113C0000BF1837BD4680BD0010024000080140BA
:10114C00000C014080B582B000AF786000F020F850
:10115C0000BF0837BD4680BD80B400AF72B600BF7B
:10116C0000BFFDE780B582B000AF0023FB7106E045
:10117C00FB79184600F020F9FB790133FB71FB7900
:10118C00272BF5D900BF00BF0837BD4680BD000036
:10119C0080B483B000AF0023FB715DE0FA79334972
:1011AC0013469B0013449B000B441B68002B50D030
:1011BC00FA792E4913469B0013449B000B440433CD
:1011CC001B68002B32D1FA79284913469B00134433
:1011DC009B000B440C331B78FA790133D8B22349AA
:1011EC0013469B0013449B000B440C3302461A70AD
:1011FC00FA791E4913469B0013449B000B44083399
:10120C001B68002B25D0F979FA7918480B469B00FE
:10121C000B449B00034408331968144813469B0085
:10122C0013449B0003440433196012E0FA790F490C
:10123C0013469B0013449B000B4404331B68FA7940
:10124C00591E0A4813469B0013449B000344043365
:10125C001960FB790133FB71FB79272B9ED900BFF9
:10126C0000BF0C37BD4680BC704700BFD8000020C3
:10127C0080B582B000AF0023FB713AE0FA792149C6
:10128C0013469B0013449B000B440C331B78002B20
:10129C001DD0FA791B4913469B0013449B000B4449
:1012AC001B689847FA79174913469B0013449B0017
:1012BC000B440C331B78FA79013BD8B21149134615
:1012CC009B0013449B000B440C3302461A70FA79B2
:1012DC000C4913469B0013449B000B4408331B68BA
:1012EC00002B03D1FB79184600F066F8FB7901332B
:1012FC00FB71FB79272BC1D900BF00BF0837BD4656
:10130C0080BD00BFD800002080B487B000AFF8606B
:10131C00B9607A600023FB7502E0FB7D0133FB753D
:10132C00FA7D234913469B0013449B000B441B6816
:10133C00002B02D0FB7D272BEFD9FB7D282B01D175
:10134C0028232FE0FA7D1A4913469B0013449B0077
:10135C000B44FA681A60FA7DBB681649A1FB0313AB
:10136C00D908134813469B0013449B0003440433D1
:10137C001960FA7D0E4913469B0013449B000B44E5
:10138C000C3300221A70FA7D7B680A49A1FB031307
:10139C00D908074813469B0013449B0003440833A9
:1013AC001960FB7D18461C37BD4680BC704700BFDA
:1013BC00D8000020CDCCCCCC80B485B000AF786008
:1013CC001D497A6813469B0013449B000B441B6811
:1013DC00002B02D10023FB7301E00123FB731649A0
:1013EC007A6813469B0013449B000B4400221A603E
:1013FC0011497A6813469B0013449B000B44043339
:10140C0000221A600C497A6813469B0013449B0017
:10141C000B440C3300221A7007497A6813469B0060
:10142C0013449B000B44083300221A60FB7B1846C4
:10143C001437BD4680BC7047D800002080B485B0FE
:10144C0000AF154B9B69144A43F001039361124B97
:10145C009B6903F00103BB60BB680F4BDB690E4A51
:10146C0043F08053D3610C4BDB6903F080537B60FA
:10147C007B680A4B5B68FB60FB6823F0E063FB60F6
:10148C00FB6843F08063FB60044AFB68536000BF59
:10149C001437BD4680BC704700100240000001406C
:1014AC0080B584B000AF78607B681B68B3F1804F67
:1014BC0013D10C4BDB690B4A43F00103D361094B8D
:1014CC00DB6903F00103FB60FB68002200211C2098
:1014DC0000F0B1F91C2000F0CAF900BF1037BD466E
:1014EC0080BD00BF0010024080B400AF00BFFDE71C
:1014FC0080B400AF00BFFDE780B400AF00BFFDE7D4
:10150C0080B400AF00BFFDE780B400AF00BFFDE7C3
:10151C0080B400AF00BFBD4680BC704780B400AF44
:10152C0000BFBD4680BC704780B400AF00BFBD4655
:10153C0080BC704780B500AF00F08AF800BF80BD5A
:10154C0080B500AF024800F0F3FF00BF80BD00BFC4
:10155C009000002080B400AF00BFBD4680BC704737
:10156C0080B500AF4FF40051024800F04EFB00BFB5
:10157C0080BD00BF00080140FFF7ECFF0B480C4991
:10158C000C4A002302E0D458C4500433C4188C42D3
:10159C00F9D3094A094C002301E013600432A2423A
:1015AC00FBD301F005FBFFF797FC70470000002010
:1015BC004C000020482C00084C000020FC030020AC
:1015CC00FEE7000080B500AF084B1B68074A43F0EC
:1015DC0010031360032000F023F90F2000F008F82B
:1015EC00FFF72CFF0023184680BD00BF00200240EF
:1015FC0080B582B000AF7860124B1A68124B1B7822
:10160C0019464FF47A73B3FBF1F3B2FBF3F31846BC
:10161C0000F03BF90346002B01D001230EE07B6860
:10162C000F2B0AD8002279684FF0FF3000F003F935
:10163C00064A7B681360002300E001231846083734
:10164C00BD4680BD40000020480000204400002022
:10165C0080B400AF054B1B781A46054B1B6813442E
:10166C00034A136000BFBD4680BC70474800002091
:10167C00F803002080B400AF024B1B681846BD462F
:10168C0080BC7047F803002080B485B000AF786050
:10169C007B6803F00703FB600C4BDB68BB60BA682C
:1016AC004FF6FF031340BB60FB681A02BB68134381
:1016BC0043F0BF6343F40033BB60044ABB68D360A0
:1016CC0000BF1437BD4680BC704700BF00ED00E082
:1016DC0080B400AF044BDB681B0A03F00703184609
:1016EC00BD4680BC704700BF00ED00E080B483B005
:1016FC0000AF0346FB7197F90730002B0BDBFB792E
:10170C0003F01F02064997F907305B09012000FA24
:10171C0002F241F8232000BF0C37BD4680BC704755
:10172C0000E100E080B483B000AF03463960FB7188
:10173C0097F90730002B0ADB3B68DAB20C4997F9B2
:10174C0007301201D2B20B4483F800230AE03B6845
:10175C00DAB20849FB7903F00F03043B1201D2B251
:10176C000B441A7600BF0C37BD4680BC704700BFD7
:10177C0000E100E000ED00E080B489B000AFF8605B
:10178C00B9607A60FB6803F00703FB61FB69C3F186
:10179C000703042B28BF0423BB61FB690433062B0E
:1017AC0002D9FB69033B00E000237B614FF0FF3261
:1017BC00BB6902FA03F3DA43BB681A407B699A40AF
:1017CC004FF0FF317B6901FA03F3D9437B680B407F
:1017DC00134318462437BD4680BC704780B582B091
:1017EC0000AF78607B68013BB3F1807F01D30123AC
:1017FC000FE00A4A7B68013B53600F214FF0FF302A
:10180C00FFF790FF054B00229A60044B07221A60E9
:10181C00002318460837BD4680BD00BF10E000E02D
:10182C0080B582B000AF78607868FFF72DFF00BFFD
:10183C000837BD4680BD80B586B000AF0346B960A1
:10184C007A60FB7300237B61FFF742FF78617A6853
:10185C00B9687869FFF790FF024697F90F30114687
:10186C001846FFF75FFF00BF1837BD4680BD80B537
:10187C0082B000AF0346FB7197F907301846FFF7AB
:10188C0035FF00BF0837BD4680BD80B582B000AFC4
:10189C0078607868FFF7A2FF034618460837BD4604
:1018AC0080BD000080B48BB000AF7860396000233D
:1018BC007B6200233B6269E101227B6A02FA03F33B
:1018CC00FB613B681B68FA691340BB61BA69FB6931
:1018DC009A4240F058813B685B689A4A93425ED0CA
:1018EC00984A934275D8984A934258D0964A934254
:1018FC006FD8964A934252D0944A934269D8944AEC
:10190C0093424CD0924A934263D8924A934246D027
:10191C00904A93425DD8122B2AD8122B59D801A287
:10192C0052F823F0AB190008851900089719000824
:10193C00D9190008DF190008DF190008DF190008A1
:10194C00DF190008DF190008DF190008DF1900088B
:10195C00DF190008DF190008DF190008DF1900087B
:10196C00DF190008DF1900088D190008A1190008FB
:10197C00794A934213D02CE03B68DB683B6229E048
:10198C003B68DB6804333B6224E03B68DB6808336C
:10199C003B621FE03B68DB680C333B621AE03B6840
:1019AC009B68002B02D104233B6213E03B689B68CD
:1019BC00012B05D108233B627B68FA691A6109E0A7
:1019CC0008233B627B68FA695A6103E000233B629F
:1019DC0000E000BFBB69FF2B01D87B6801E07B688E
:1019EC0004337B61BB69FF2B02D87B6A9B0002E04E
:1019FC007B6A083B9B003B617B691A680F213B6942
:101A0C0001FA03F3DB431A40396A3B6901FA03F329
:101A1C001A437B691A603B685B6803F08053002BA8
:101A2C0000F0B1804D4B9B694C4A43F0010393612C
:101A3C004A4B9B6903F00103BB60BB68484A7B6A55
:101A4C009B08023352F82330FB607B6A03F00303DC
:101A5C009B000F2202FA03F3DB43FA681340FB608E
:101A6C007B68404A934213D07B683F4A93420DD027
:101A7C007B683E4A934207D07B683D4A934201D132
:101A8C00032306E0042304E0022302E0012300E028
:101A9C0000237A6A02F0030292009340FA6813431F
:101AAC00FB602F497B6A9B080233FA6841F82320BC
:101ABC003B685B6803F48013002B06D02D4B9A68AF
:101ACC002C49BB6913438B6006E02A4B9A68BB69AF
:101ADC00DB43284913408B603B685B6803F40013BD
:101AEC00002B06D0234BDA682249BB691343CB6029
:101AFC0006E0204BDA68BB69DB431E491340CB6020
:101B0C003B685B6803F40033002B06D0194B5A6812
:101B1C001849BB6913434B6006E0164B5A68BB6906
:101B2C00DB43144913404B603B685B6803F4803320
:101B3C00002B21D00F4B1A680E49BB6913430B6065
:101B4C0021E000BF00003210000031100000221014
:101B5C0000002110000012100000111000100240B3
:101B6C000000014000080140000C01400010014041
:101B7C0000140140000401400B4B1A68BB69DB43A5
:101B8C00094913400B607B6A01337B623B681A681E
:101B9C007B6A22FA03F3002B7FF48EAE00BF00BFEA
:101BAC002C37BD4680BC70470004014080B485B022
:101BBC0000AF78600B467B807B689A687B8813400B
:101BCC00002B02D00123FB7301E00023FB73FB7B92
:101BDC0018461437BD4680BC704780B483B000AF44
:101BEC0078600B467B8013467B707B78002B03D090
:101BFC007A887B681A6103E07B881A047B681A6117
:101C0C0000BF0C37BD4680BC704780B485B000AFB8
:101C1C0078600B467B807B68DB68FB607A88FB68AE
:101C2C0013401A04FB68D9437B880B401A437B682A
:101C3C001A6100BF1437BD4680BC704780B586B0B2
:101C4C0000AF78607B68002B01D1012372E27B68C6
:101C5C001B6803F00103002B00F08780924B5B683C
:101C6C0003F00C03042B0CD08F4B5B6803F00C03BC
:101C7C00082B12D18C4B5B6803F48033B3F5803F97
:101C8C000BD1894B1B6803F40033002B6CD07B68A1
:101C9C005B68002B68D101234CE27B685B68B3F571
:101CAC00803F06D1804B1B687F4A43F4803313601E
:101CBC002EE07B685B68002B0CD17B4B1B687A4A4F
:101CCC0023F480331360784B1B68774A23F480230A
:101CDC0013601DE07B685B68B3F5A02F0CD1724BD1
:101CEC001B68714A43F4802313606F4B1B686E4A68
:101CFC0043F4803313600BE06B4B1B686A4A23F48C
:101D0C0080331360684B1B68674A23F4802313608D
:101D1C007B685B68002B13D0FFF7ACFC386108E0E4
:101D2C00FFF7A8FC02463B69D31A642B01D90323A5
:101D3C0000E25D4B1B6803F40033002BF0D014E081
:101D4C00FFF798FC386108E0FFF794FC02463B690A
:101D5C00D31A642B01D90323ECE1534B1B6803F416
:101D6C000033002BF0D100E000BF7B681B6803F050
:101D7C000203002B63D04C4B5B6803F00C03002B6D
:101D8C000BD0494B5B6803F00C03082B1CD1464B62
:101D9C005B6803F48033002B16D1434B1B6803F0B4
:101DAC000203002B05D07B681B69012B01D001239A
:101DBC00C0E13D4B1B6823F0F8027B685B69DB00DC
:101DCC00394913430B603AE07B681B69002B20D028
:101DDC00364B01221A60FFF74DFC386108E0FFF723
:101DEC0049FC02463B69D31A022B01D90323A1E11A
:101DFC002D4B1B6803F00203002BF0D02A4B1B6801
:101E0C0023F0F8027B685B69DB00274913430B6006
:101E1C0015E0264B00221A60FFF72CFC386108E015
:101E2C00FFF728FC02463B69D31A022B01D9032386
:101E3C0080E11D4B1B6803F00203002BF0D17B6883
:101E4C001B6803F00803002B3AD07B689B69002BBE
:101E5C0019D0174B01221A60FFF70CFC386108E00F
:101E6C00FFF708FC02463B69D31A022B01D9032366
:101E7C0060E10D4B5B6A03F00203002BF0D00120F4
:101E8C0000F09CFA1CE00A4B00221A60FFF7F2FBF0
:101E9C0038610FE0FFF7EEFB02463B69D31A022BC9
:101EAC0008D9032346E100BF001002400000424263
:101EBC0080044242924B5B6A03F00203002BE9D18F
:101ECC007B681B6803F00403002B00F0A680002342
:101EDC00FB758B4BDB6903F08053002B0DD1884BCA
:101EEC00DB69874A43F08053D361854BDB6903F090
:101EFC008053BB60BB680123FB75824B1B6803F4EA
:101F0C008073002B18D17F4B1B687E4A43F480737F
:101F1C001360FFF7AFFB386108E0FFF7ABFB02463D
:101F2C003B69D31A642B01D9032303E1754B1B685E
:101F3C0003F48073002BF0D07B68DB68012B06D197
:101F4C006F4B1B6A6E4A43F0010313622DE07B68F2
:101F5C00DB68002B0CD16A4B1B6A694A23F0010326
:101F6C001362674B1B6A664A23F0040313621CE07E
:101F7C007B68DB68052B0CD1614B1B6A604A43F014
:101F8C00040313625E4B1B6A5D4A43F00103136248
:101F9C000BE05B4B1B6A5A4A23F001031362584B4C
:101FAC001B6A574A23F0040313627B68DB68002B1F
:101FBC0015D0FFF75FFB38610AE0FFF75BFB0246C9
:101FCC003B69D31A41F28832934201D90323B1E021
:101FDC004B4B1B6A03F00203002BEED014E0FFF70F
:101FEC0049FB38610AE0FFF745FB02463B69D31A0F
:101FFC0041F28832934201D903239BE0404B1B6A88
:10200C0003F00203002BEED1FB7D012B05D13C4BE1
:10201C00DB693B4A23F08053D3617B68DB69002B7F
:10202C0000F08780364B5B6803F00C03082B61D003
:10203C007B68DB69022B46D1334B00221A60FFF719
:10204C0019FB386108E0FFF715FB02463B69D31A10
:10205C00022B01D903236DE0294B1B6803F000739D
:10206C00002BF0D17B681B6AB3F5803F08D1244B61
:10207C005B6823F400327B689B68214913434B60F7
:10208C001F4B5B6823F474127B68196A7B685B6A6C
:10209C000B431B4913434B601B4B01221A60FFF788
:1020AC00E9FA386108E0FFF7E5FA02463B69D31A12
:1020BC00022B01D903233DE0114B1B6803F0007385
:1020CC00002BF0D035E0104B00221A60FFF7D2FA4B
:1020DC00386108E0FFF7CEFA02463B69D31A022BAF
:1020EC0001D9032326E0064B1B6803F00073002B79
:1020FC00F0D11EE07B68DB69012B07D1012319E0CD
:10210C000010024000700040600042420B4B5B68C4
:10211C00FB60FB6803F480327B681B6A9A4206D131
:10212C00FB6803F470127B685B6A9A4201D001234E
:10213C0000E0002318461837BD4680BD0010024051
:10214C0080B584B000AF786039607B68002B01D11A
:10215C000123D0E06A4B1B6803F007033A689A42EC
:10216C0010D9674B1B6823F0070265493B68134382
:10217C000B60634B1B6803F007033A689A4201D06B
:10218C000123B8E07B681B6803F00203002B20D00E
:10219C007B681B6803F00403002B05D0594B5B686C
:1021AC00584A43F4E06353607B681B6803F00803F0
:1021BC00002B05D0534B5B68524A43F46053536079
:1021CC00504B5B6823F0F0027B689B684D491343CE
:1021DC004B607B681B6803F00103002B40D07B68CD
:1021EC005B68012B07D1474B1B6803F40033002BB2
:1021FC0015D101237FE07B685B68022B07D1414B33
:10220C001B6803F00073002B09D1012373E03D4BD5
:10221C001B6803F00203002B01D101236BE0394B47
:10222C005B6823F003027B685B68364913434B60A1
:10223C00FFF720FAF8600AE0FFF71CFA0246FB6889
:10224C00D31A41F28832934201D9032353E02D4B28
:10225C005B6803F00C027B685B689B009A42EBD1D5
:10226C00274B1B6803F007033A689A4210D2244BA1
:10227C001B6823F0070222493B6813430B60204B79
:10228C001B6803F007033A689A4201D0012332E03D
:10229C007B681B6803F00403002B08D0194B5B68A8
:1022AC0023F4E0627B68DB68164913434B607B6860
:1022BC001B6803F00803002B09D0124B5B6823F456
:1022CC0060527B681B69DB000E4913434B6000F0C6
:1022DC0021F802460B4B5B681B0903F00F030A49FC
:1022EC00CB5C22FA03F3094A1360094B1B681846AE
:1022FC00FFF77EF9002318461037BD4680BD00BF9E
:10230C0000200240001002401C2C0008400000205D
:10231C004400002080B487B000AF0023FB60002392
:10232C00BB6000237B6100237B6000233B611E4B61
:10233C005B68FB60FB6803F00C03042B02D0082BDA
:10234C0003D027E0194B3B6127E0FB689B0C03F0A3
:10235C000F03174AD35C7B60FB6803F48033002BBC
:10236C0010D0114B5B685B0C03F00103114AD35C7A
:10237C00BB607B680D4A03FB02F2BB68B2FBF3F354
:10238C007B6104E07B680C4A02FB03F37B617B6995
:10239C003B6102E0054B3B6100BF3B6918461C37B3
:1023AC00BD4680BC704700BF0010024000127A008E
:1023BC002C2C00083C2C000800093D0080B485B092
:1023CC0000AF78600A4B1B680A4AA2FB03235B0A26
:1023DC007A6802FB03F3FB6000BFFB685A1EFA60CD
:1023EC00002BF9D100BF00BF1437BD4680BC70472D
:1023FC0040000020D34D621080B582B000AF7860F1
:10240C007B68002B01D1012341E07B6893F83D30C0
:10241C00DBB2002B06D17B68002283F83C20786865
:10242C00FFF73EF87B68022283F83D207B681A6830
:10243C007B6804331946104600F056FA7B6801227B
:10244C0083F846207B68012283F83E207B680122BA
:10245C0083F83F207B68012283F840207B680122AF
:10246C0083F841207B68012283F842207B6801229B
:10247C0083F843207B68012283F844207B68012287
:10248C0083F845207B68012283F83D200023184601
:10249C000837BD4680BD000080B485B000AF7860C1
:1024AC007B6893F83D30DBB2012B01D0012335E082
:1024BC007B68022283F83D207B681B68DA687B68A6
:1024CC001B6842F00102DA607B681B68B3F1804F35
:1024DC0009D07B681B68144A934204D07B681B6844
:1024EC00124A934211D17B681B689B6803F0070367
:1024FC00FB60FB68062B10D07B681B681A687B6836
:10250C001B6842F001021A6007E07B681B681A68BE
:10251C007B681B6842F001021A60002318461437CE
:10252C00BD4680BC704700BF00040040000800405E
:10253C0080B584B000AF78607B681B68DB68FB609B
:10254C007B681B681B69BB60BB6803F00203002B34
:10255C0020D0FB6803F00203002B1BD07B681B68A8
:10256C006FF002021A617B6801221A777B681B6884
:10257C009B6903F00303002B03D0786800F098F9F3
:10258C0005E0786800F08BF9786800F09AF97B68C0
:10259C0000221A77BB6803F00403002B20D0FB68E1
:1025AC0003F00403002B1BD07B681B686FF0040244
:1025BC001A617B6802221A777B681B689B6903F49B
:1025CC004073002B03D0786800F072F905E078684E
:1025DC0000F065F9786800F074F97B6800221A77CE
:1025EC00BB6803F00803002B20D0FB6803F0080342
:1025FC00002B1BD07B681B686FF008021A617B688C
:10260C0004221A777B681B68DB6903F00303002B39
:10261C0003D0786800F04CF905E0786800F03FF9D9
:10262C00786800F04EF97B6800221A77BB6803F0DB
:10263C001003002B20D0FB6803F01003002B1BD0E1
:10264C007B681B686FF010021A617B6808221A778E
:10265C007B681B68DB6903F44073002B03D078683C
:10266C0000F026F905E0786800F019F9786800F0B8
:10267C0028F97B6800221A77BB6803F00103002B52
:10268C000CD0FB6803F00103002B07D07B681B68A0
:10269C006FF001021A617868FEF754FDBB6803F015
:1026AC008003002B0CD0FB6803F08003002B07D0B9
:1026BC007B681B686FF080021A61786800F067FA1B
:1026CC00BB6803F04003002B0CD0FB6803F0400305
:1026DC00002B07D07B681B686FF040021A6178688A
:1026EC0000F0F8F8BB6803F02003002B0CD0FB685B
:1026FC0003F02003002B07D07B681B686FF02002CF
:10270C001A61786800F03AFA00BF1037BD4680BDF8
:10271C0080B584B000AF786039600023FB737B68B0
:10272C0093F83C30012B01D10223B4E07B680122E9
:10273C0083F83C207B68022283F83D207B681B6871
:10274C009B68BB60BB6823F07703BB60BB6823F45A
:10275C007F43BB607B681B68BA689A603B681B68E8
:10276C00B3F5005F3ED0B3F5005F00F28780B3F5A0
:10277C00805F00F08680B3F5805F7FD8702B1AD015
:10278C00702B7BD8602B50D0602B77D8502B3CD043
:10279C00502B73D8402B58D0402B6FD8302B64D093
:1027AC00302B6BD8202B60D0202B67D8002B5CD023
:1027BC00102B5AD062E07B6818683B6899683B68BC
:1027CC005A683B68DB6800F062F97B681B689B68A1
:1027DC00BB60BB6843F07703BB607B681B68BA685F
:1027EC009A604FE07B6818683B6899683B685A6848
:1027FC003B68DB6800F04BF97B681B689A687B6868
:10280C001B6842F480429A603CE07B6818683B6825
:10281C0059683B68DB681A4600F0C2F87B681B6895
:10282C005021184600F019F92CE07B6818683B68B9
:10283C0059683B68DB681A4600F0E0F87B681B6857
:10284C006021184600F009F91CE07B6818683B68A9
:10285C0059683B68DB681A4600F0A2F87B681B6875
:10286C004021184600F0F9F80CE07B681A683B68C8
:10287C001B681946104600F0F0F803E00123FB73C7
:10288C0000E000BF7B68012283F83D207B680022BA
:10289C0083F83C20FB7B18461037BD4680BD80B4C6
:1028AC0083B000AF786000BF0C37BD4680BC70476A
:1028BC0080B483B000AF786000BF0C37BD4680BCDD
:1028CC00704780B483B000AF786000BF0C37BD4652
:1028DC0080BC704780B483B000AF786000BF0C3709
:1028EC00BD4680BC7047000080B485B000AF7860F6
:1028FC0039607B681B68FB607B68B3F1804F07D045
:10290C007B68254A934203D07B68244A934208D1C2
:10291C00FB6823F07003FB603B685B68FA68134349
:10292C00FB607B68B3F1804F07D07B681A4A9342F7
:10293C0003D07B68194A934208D1FB6823F4407397
:10294C00FB603B68DB68FA681343FB60FB6823F0B1
:10295C0080023B685B691343FB607B68FA681A6012
:10296C003B689A687B68DA623B681A687B689A6293
:10297C007B6801225A617B681B6903F00103002B01
:10298C0005D07B681B6923F001027B681A6100BFCC
:10299C001437BD4680BC704700040040000800405E
:1029AC0080B487B000AFF860B9607A60FB681B6ACE
:1029BC007B61FB681B6A23F00102FB681A62FB68EF
:1029CC009B693B613B6923F0F0033B617B681B0116
:1029DC003A6913433B617B6923F00A037B617A6993
:1029EC00BB6813437B61FB683A699A61FB687A693F
:1029FC001A6200BF1C37BD4680BC704780B487B0DC
:102A0C0000AFF860B9607A60FB681B6A7B61FB6899
:102A1C001B6A23F01002FB681A62FB689B693B611E
:102A2C003B6923F470433B617B681B033A69134396
:102A3C003B617B6923F0A0037B61BB681B017A6956
:102A4C0013437B61FB683A699A61FB687A691A6285
:102A5C0000BF1C37BD4680BC704780B485B000AF4A
:102A6C00786039607B689B68FB60FB6823F07003BF
:102A7C00FB603A68FB68134343F00703FB607B6819
:102A8C00FA689A6000BF1437BD4680BC704780B4AA
:102A9C0087B000AFF860B9607A603B60FB689B68F8
:102AAC007B617B6923F47F437B613B681A027B6803
:102ABC001A43BB6813437A6913437B61FB687A69D9
:102ACC009A6000BF1C37BD4680BC704780B485B08F
:102ADC0000AF786039607B6893F83C30012B01D1F2
:102AEC00022341E07B68012283F83C207B680222B0
:102AFC0083F83D207B681B685B68FB607B681B6808
:102B0C009B68BB60FB6823F07003FB603B681B6831
:102B1C00FA681343FB607B681B68FA685A607B6831
:102B2C001B68B3F1804F09D07B681B68114A934234
:102B3C0004D07B681B68104A93420CD1BB6823F00D
:102B4C008003BB603B685B68BA681343BB607B68FF
:102B5C001B68BA689A607B68012283F83D207B6809
:102B6C00002283F83C20002318461437BD4680BC55
:102B7C00704700BF000400400008004080B483B0E0
:102B8C0000AF786000BF0C37BD4680BC704780B486
:102B9C0083B000AF786000BF0C37BD4680BC704777
:102BAC0003460244934200D1704703F8011BF9E736
:102BBC0070B500260C4D0D4C641BA410A64209D117
:102BCC0000F01AF800260A4D0A4C641BA410A64209
:102BDC0005D170BD55F8043B98470136EEE755F822
:102BEC00043B98470136F2E7402C0008402C0008C3
:102BFC00402C0008442C0008F8B500BFF8BC08BCF9
:102C0C009E467047F8B500BFF8BC08BC9E4670479E
:102C1C000000000000000000010203040607080980
:102C2C0002030405060708090A0B0C0D0E0F101001
:042C3C000102000091
:042C40003101000856
:042C44000D01000876
:102C4800050000000200000003000000F40100007D
:102C58000100000001000000010000000100000068
:102C68000100000001000000010000000100000058
:102C78000100000001000000010000000100000048
:0C2C880000127A001000000001000000A3
:040000050800158555
:00000001FF
