:020000040800F2
:100000000050002061140008D1130008D913000823
:10001000E1130008E9130008F113000800000000D4
:10002000000000000000000000000000F9130008BC
:100030000514000800000000111400081D14000839
:10004000A9140008A9140008A9140008A91400089C
:10005000A9140008A9140008A9140008A91400088C
:10006000A9140008A9140008A9140008A91400087C
:10007000A9140008A9140008A9140008A91400086C
:10008000A9140008A9140008A9140008A91400085C
:10009000A9140008A9140008A9140008A91400084C
:1000A000A9140008A9140008A9140008A91400083C
:1000B00029140008A9140008A9140008A9140008AC
:1000C000A9140008A9140008A9140008A91400081C
:1000D000A9140008A9140008A9140008A91400080C
:1000E000A9140008A9140008A914000800000000C1
:1000F0000000000000000000000000000000000000
:0C01000000000000000000005FF808F1A3
:10010C0010B5054C237833B9044B13B10448AFF345
:10011C0000800123237010BD480000200000000067
:10012C001C2B000808B5034B1BB103490348AFF364
:10013C00008008BD000000004C0000201C2B0008B3
:10014C0080B400AF0C4B1B6801330B4A13600A4B95
:10015C001B68032B0CDD094B1B68013B074A136022
:10016C00074B1B68013B064A1360034B00221A60C5
:10017C0000BFBD4680BC7047880000208000002076
:10018C008400002080B500AF994B1B68042B00F253
:10019C00238101A252F823F0B901000809020008DA
:1001AC007D020008F90200086B030008904B012245
:1001BC001A60904B1B68904A1360904B1B68904AD6
:1001CC001360904B1B68904A13608A4B1B688F4AD4
:1001DC0013608C4B1B688E4A13608C4B1B68184643
:1001EC0000F0BCFD8A4B1B68184600F0EBFD894BF8
:1001FC001B681946072001F049F8F6E000F070FE84
:10020C0000F0E6FE844BDB69002B1CD0FFF798FF57
:10021C007F4B1B68002B06D1754B02221A60774B63
:10022C001B687B4A1360794B1B68184600F096FDDF
:10023C00774B1B68184600F0C5FD764B1B681946BA
:10024C00072001F023F8002000F048FB0346002BA8
:10025C0000F0C480664B0B221A6000F017FE00F011
:10026C00E7FC6C4B1B681946072001F00FF8B5E052
:10027C0000F036FE00F07CFE674BDB69002B20D0D3
:10028C00FFF75EFF614B1B68002B0AD1584B032212
:10029C001A605C4B1B685D4A1360564B1B685C4ACA
:1002AC0013605A4B1B68184600F058FD584B1B68DE
:1002BC00184600F087FD574B1B681946072000F0C5
:1002CC00E5FF002000F00AFB0346002B00F08880BD
:1002DC00474B0B221A6000F0D9FD00F0A9FC4D4BE6
:1002EC001B681946072000F0D1FF79E000F058FE9A
:1002FC0000F00EFE484BDB69002B1CD0FFF720FFF3
:10030C00424B1B68002B06D1394B04221A603B4B25
:10031C001B683E4A13603D4B1B68184600F01EFDDF
:10032C003B4B1B68184600F04DFD3A4B1B681946B9
:10033C00072000F0ABFF002000F0D0FA0346002BA2
:10034C0050D02B4B0B221A6000F0A0FD00F070FC7B
:10035C00304B1B681946072000F098FF42E000F074
:10036C00EFFD00F0D5FD2C4BDB69002B20D0FFF707
:10037C00E7FE264B1B68002B0AD11D4B01221A608D
:10038C001C4B1B68214A13601E4B1B68204A1360D0
:10039C001E4B1B68184600F0E1FC1D4B1B681846F1
:1003AC0000F010FD1B4B1B681946072000F06EFF78
:1003BC00002000F093FA0346002B15D00C4B0B22B7
:1003CC001A6000F063FD00F033FC124B1B681946F9
:1003DC00072000F05BFF07E000BF06E000BF04E071
:1003EC0000BF02E000BF00E000BF00BF80BD00BF47
:1003FC0064000020680000207400002070000020C1
:10040C00780000206C0000207C0000208000002080
:10041C008400002000000020E000002080B500AF28
:10042C00564B1B680D2B6DD00D2B00F39E800B2BA8
:10043C0002D00C2B33D098E0514B1B68194602208C
:10044C0000F060F9002000F049FA0346002B0AD0B6
:10045C004A4B0C221A6000F019FD4A4B1B681946D6
:10046C00072000F013FF012000F038FA0346002BA0
:10047C007DD0424B15221A60434B1B680133424A14
:10048C001360414B1B68632B02DD3F4B01221A604A
:10049C003C4B1B681946072000F0F8FE67E03B4B0D
:1004AC001B681946032000F02DF9002000F016FA05
:1004BC000346002B0AD0314B0D221A6000F0E6FCEB
:1004CC00304B1B681946072000F0E0FE012000F0BD
:1004DC0005FA0346002B4CD0284B16221A602C4BE5
:1004EC001B6801332A4A1360294B1B68632B02DDFE
:1004FC00274B01221A60234B1B681946072000F07A
:10050C00C5FE36E0234B1B681946042000F0FAF8B0
:10051C00002000F0E3F90346002B0AD0174B002211
:10052C001A6000F0B3FC174B1B681946072000F04B
:10053C00ADFE012000F0D2F90346002B1BD00F4B6F
:10054C0017221A60144B1B680133134A1360124BA9
:10055C001B68632B02DD104B01221A60094B1B68D0
:10056C001946072000F092FE05E000BF04E000BF32
:10057C0002E000BF00E000BF00BF80BD64000020AF
:10058C006800002000000020740000207000002093
:10059C00780000206C0000207C00002080B500AFAB
:1005AC00504B1B68172B65D0172B00F39280152B23
:1005BC0002D0162B2FD08CE04B4B1B681946022017
:1005CC0000F0A0F8002000F089F9012000F086F975
:1005DC000346002B0BD0444B1B680133424A13607B
:1005EC00414B1B68632B02DD3F4B01221A6002203A
:1005FC0000F074F90346002B6DD03B4B1B683B4A53
:10060C001360384B0B221A60394B1B6819460720B4
:10061C0000F03CFE5FE0374B1B681946032000F0EE
:10062C0071F8002000F05AF9012000F057F9034648
:10063C00002B0BD02F4B1B6801332E4A13602D4B14
:10064C001B68632B02DD2B4B01221A60022000F089
:10065C0045F90346002B40D0264B1B68264A1360F5
:10066C00204B0C221A60224B1B681946072000F005
:10067C000DFE32E0214B1B681946042000F042F8B5
:10068C00002000F02BF9012000F028F90346002B84
:10069C000BD01A4B1B680133184A1360174B1B689D
:1006AC00632B02DD154B01221A60022000F016F9B3
:1006BC000346002B13D0114B1B68114A1360094BD6
:1006CC000D221A600A4B1B681946072000F0DEFD4C
:1006DC0005E000BF04E000BF02E000BF00E000BF87
:1006EC0000BF80BD64000020740000206800002062
:1006FC000000002078000020700000207C0000200A
:10070C006C00002080B582B000AF786039601B4B64
:10071C00DB69002B2ED01A4B1B680133184A13606F
:10072C00174B1B68032B02DD154B00221A60144B70
:10073C001B6803F00103002B10D17B68022B02D144
:10074C0000F074FB0AE07B68032B02D100F07EFB07
:10075C0004E07B68042B01D100F088FB786800F082
:10076C00FDFA386800F02EFB064B1B681946072073
:10077C0000F08CFD00BF0837BD4680BDE0000020B6
:10078C00880000200000002080B582B000AF00235C
:10079C00FB718CE0FA79FB79494951F822204949DF
:1007AC0041F82320FA79FB79474951F82220444932
:1007BC0041F82320FB79002B0BD11021434801F089
:1007CC0063F903461A46FB7911463F4A42F8231057
:1007DC001CE0FB79012B0BD120213C4801F054F992
:1007EC0003461A46FB791146374A42F823100DE0AE
:1007FC00FB79022B0AD14021344801F045F903461C
:10080C001A46FB791146304A42F82310FB792E4ADE
:10081C0052F82320FB792A4951F823309A4243D1CC
:10082C00FB79274A52F82320FB79264951F82330CB
:10083C009A4239D1FB79244A52F82320FB79244976
:10084C0051F823309A422FD0FA79FB791E4951F88E
:10085C0022201F4941F82320FB791B4A52F82330F0
:10086C00002B09D11B4B4FF4FA721A60FB791A4A10
:10087C00012142F8231017E0164B1B68013B154A67
:10088C001360144B1B68002B0ED1124B4FF4FA72F1
:10089C001A60FB790C4A52F82330002B04D1FB79F7
:1008AC000D4A012142F82310FB790133FB71FB79CE
:1008BC00022B7FF66FAF00BF00BF0837BD4680BD6F
:1008CC001400002020000020080000200008014037
:1008DC002C000020040000208C00002080B483B089
:1008EC0000AF7860094A7B6852F82330012B06D19F
:1008FC00064A7B68002142F82310012300E0002304
:10090C0018460C37BD4680BC704700BF8C000020D9
:10091C0080B582B000AF78607B68092B00F28081D3
:10092C0001A252F823F000BF5D090008A5090008D8
:10093C00ED090008350A00087D0A0008C50A000800
:10094C000D0B0008550B00089D0B0008E50B00086B
:10095C0000220121B54801F0AEF800220221B34873
:10096C0001F0A9F800220421B04801F0A4F80022FB
:10097C000821AE4801F09FF800221021AB4801F08D
:10098C009AF800222021A94801F095F80122402173
:10099C00A64801F090F844E101220121A34801F09E
:1009AC008AF800220221A14801F085F800220421D6
:1009BC009E4801F080F8012208219C4801F07BF848
:1009CC0001221021994801F076F801222021974844
:1009DC0001F071F801224021944801F06CF820E1FB
:1009EC0000220121914801F066F8002202218F4873
:1009FC0001F061F8012204218C4801F05CF800221E
:100A0C0008218A4801F057F800221021874801F08C
:100A1C0052F801222021854801F04DF80022402196
:100A2C00824801F048F8FCE0002201217F4801F0E7
:100A3C0042F8002202217D4801F03DF800220421F9
:100A4C007A4801F038F800220821784801F033F890
:100A5C0001221021754801F02EF801222021734843
:100A6C0001F029F800224021704801F024F8D8E068
:100A7C00012201216D4801F01EF8002202216B4871
:100A8C0001F019F800220421684801F014F8012241
:100A9C000821664801F00FF801221021634801F08B
:100AAC000AF800222021614801F005F800224021BB
:100ABC005E4801F000F8B4E0002201215B4800F030
:100ACC00FAFF01220221594800F0F5FF002204210F
:100ADC00564800F0F0FF00220821544800F0EBFFCC
:100AEC0001221021514800F0E6FF002220214F483E
:100AFC0000F0E1FF002240214C4800F0DCFF90E0C8
:100B0C0000220121494800F0D6FF0122022147486A
:100B1C0000F0D1FF00220421444800F0CCFF002259
:100B2C000821424800F0C7FF002210213F4800F086
:100B3C00C2FF002220213D4800F0BDFF00224021D1
:100B4C003A4800F0B8FF6CE000220121374800F071
:100B5C00B2FF00220221354800F0ADFF0022042133
:100B6C00324800F0A8FF01220821304800F0A3FF12
:100B7C00012210212D4800F09EFF012220212B483C
:100B8C0000F099FF01224021284800F094FF48E032
:100B9C0000220121254800F08EFF0022022123486B
:100BAC0000F089FF00220421204800F084FF00227D
:100BBC0008211E4800F07FFF002210211B4800F086
:100BCC007AFF00222021194800F075FF00224021F5
:100BDC00164800F070FF24E000220121134800F0B9
:100BEC006AFF00220221114800F065FF0022042157
:100BFC000E4800F060FF002208210C4800F05BFF5B
:100C0C0001221021094800F056FF0022202107483C
:100C1C0000F051FF00224021044800F04CFF00E09E
:100C2C0000BF00BF0837BD4680BD00BF000C0140AF
:100C3C0080B500AF012280210B4800F03CFF01225F
:100C4C004FF48071084800F036FF01224FF4007118
:100C5C00054800F030FF01224FF48061024800F09B
:100C6C002AFF00BF80BD00BF000C014080B500AF63
:100C7C00002280210B4800F01EFF01224FF48071EE
:100C8C00084800F018FF01224FF40071054800F0ED
:100C9C0012FF01224FF48061024800F00CFF00BFEC
:100CAC0080BD00BF000C014080B500AF0122802147
:100CBC000B4800F000FF00224FF48071084800F050
:100CCC00FAFE01224FF40071054800F0F4FE0122F7
:100CDC004FF48061024800F0EEFE00BF80BD00BF03
:100CEC00000C014080B500AF012280210B4800F0C0
:100CFC00E2FE01224FF48071084800F0DCFE002275
:100D0C004FF40071054800F0D6FE01224FF48061CB
:100D1C00024800F0D0FE00BF80BD00BF000C0140B7
:100D2C0080B500AF012280210B4800F0C4FE0122E7
:100D3C004FF48071084800F0BEFE01224FF40071A0
:100D4C00054800F0B8FE00224FF48061024800F024
:100D5C00B2FE00BF80BD00BF000C014080B584B066
:100D6C0000AF78607B68154A82FB03129210DB1788
:100D7C00D31AFB607A68114B83FB02139910D317BB
:100D8C00C91A0B469B000B445B00D31ABB600C4B7F
:100D9C001B68002B04D1F868FFF7BAFDFFF766FF5C
:100DAC00074B1B68012B04D1B868FFF7B1FDFFF7A7
:100DBC007BFF00BF1037BD4680BD00BF676666660F
:100DCC008800002080B584B000AF78607B68154A3D
:100DDC0082FB03129210DB17D31AFB607A68114B5B
:100DEC0083FB02139910D317C91A0B469B000B44B3
:100DFC005B00D31ABB600C4B1B68022B04D1F86848
:100E0C00FFF786FDFFF76EFF074B1B68032B04D122
:100E1C00B868FFF77DFDFFF783FF00BF1037BD46B5
:100E2C0080BD00BF676666668800002080B500AF95
:100E3C004FF48061044800F056FE8021024800F017
:100E4C0052FE00BF80BD00BF0008014080B500AF5E
:100E5C004FF40061044800F046FE4FF480710248E4
:100E6C0000F041FE00BF80BD0008014080B500AF1E
:100E7C004FF48051044800F036FE4FF400710248E4
:100E8C0000F031FE00BF80BD0008014080B500AF0E
:100E9C0000224FF48061114800F00DFE00228021E9
:100EAC000E4800F008FE00224FF400610B4800F0E1
:100EBC0002FE00224FF48071084800F0FCFD002275
:100ECC004FF48051054800F0F6FD00224FF40071FC
:100EDC00024800F0F0FD00BF80BD00BF00080140DB
:100EEC0080B500AF01224FF48061084800F0E3FDAB
:100EFC0000224FF40061054800F0DDFD00224FF4A4
:100F0C008051024800F0D7FD00BF80BD00080140B1
:100F1C0080B500AF01228021084800F0CCFD0022F2
:100F2C004FF48071054800F0C6FD00224FF40071AB
:100F3C00024800F0C0FD00BF80BD00BF00080140AA
:100F4C0080B500AF00224FF48061084800F0B3FD7B
:100F5C0001224FF40061054800F0ADFD00224FF472
:100F6C008051024800F0A7FD00BF80BD0008014081
:100F7C0080B500AF00228021084800F09CFD0122C2
:100F8C004FF48071054800F096FD00224FF400717B
:100F9C00024800F090FD00BF80BD00BF000801407A
:100FAC0080B500AF00224FF48061084800F083FD4B
:100FBC0000224FF40061054800F07DFD01224FF442
:100FCC008051024800F077FD00BF80BD0008014051
:100FDC0080B500AF00228021084800F06CFD002293
:100FEC004FF48071054800F066FD01224FF400714A
:100FFC00024800F060FD00BF80BD00BF000801404A
:10100C0080B500AF00F04CFA00F036F800F0BCF8F8
:10101C0000F06EF8124801F0ADF94FF4FA710520AA
:10102C0000F034F90F4B00221A600F4B05221A60A6
:10103C000E4B02221A600E4B03221A600D4B5B6999
:10104C00002B06D000F0FAF94FF4FA71052000F0ED
:10105C001DF9FFF797F8FFF7E1F9FFF79FFAEDE7B6
:10106C009800002064000020680000207000002020
:10107C006C000020E000002080B590B000AF07F1BC
:10108C00180328220021184601F016FD3B1D0022F2
:10109C001A605A609A60DA601A610223BB610123FC
:1010AC00BB621023FB6200237B6307F11803184615
:1010BC0000F032FD0346002B01D000F0E1F80F23C5
:1010CC007B600023BB600023FB6000233B6100239B
:1010DC007B613B1D0021184600F0A0FF0346002B4E
:1010EC0001D000F0CDF800BF4037BD4680BD0000F8
:1010FC0080B586B000AF07F1080300221A605A6071
:10110C009A60DA603B4600221A605A601D4B4FF021
:10111C0080421A601B4B41F63F725A60194B0022F9
:10112C009A60184B0922DA60164B00221A61154B93
:10113C0000229A61134801F0CDF80346002B01D030
:10114C0000F09EF84FF48053BB6007F1080319467A
:10115C000C4801F051FA0346002B01D000F090F836
:10116C0000233B6000237B603B461946054801F099
:10117C0033FC0346002B01D000F082F800BF183777
:10118C00BD4680BD9800002080B586B000AF07F149
:10119C00080300221A605A609A60DA60284B9B6937
:1011AC00274A43F004039361254B9B6903F0040326
:1011BC007B607B68224B9B69214A43F00803936157
:1011CC001F4B9B6903F008033B603B6800224FF404
:1011DC007E511C4800F06FFC002240F2FF711A484F
:1011EC0000F069FC7023BB600023FB6001233B61B2
:1011FC0007F108031946134800F0C2FA4FF47E5366
:10120C00BB600123FB6000233B6102237B6107F180
:10121C00080319460B4800F0B3FA40F2FF73BB60A9
:10122C000123FB6000233B6102237B6107F1080370
:10123C001946054800F0A4FA00BF1837BD4680BD1A
:10124C000010024000080140000C014080B584B041
:10125C0000AF7860052000F037F8072000F034F874
:10126C000023FB6004E0FFF78FFAFB680133FB609F
:10127C00FB68022BF7DD00BF00BF1037BD4680BDF9
:10128C0080B400AF72B600BF00BFFDE780B483B07E
:10129C0000AF78603960094B1B683A6892FBF3F237
:1012AC0007497B6841F82320064A7B68002142F8F5
:1012BC00231000BF0C37BD4680BC7047380000209F
:1012CC0008010020E000002080B483B000AF7860FB
:1012DC000F4A7B6852F82330002B13DD0C4A7B68D5
:1012EC0052F823305A1E0A497B6841F82320084AD9
:1012FC007B6852F82330002B04DC064A7B68012102
:10130C0042F8231000BF0C37BD4680BC704700BFAD
:10131C0008010020E000002080B485B000AF154B20
:10132C009B69144A43F001039361124B9B6903F0D0
:10133C000103BB60BB680F4BDB690E4A43F0805363
:10134C00D3610C4BDB6903F080537B607B680A4BE9
:10135C005B68FB60FB6823F0E063FB60FB6843F0B9
:10136C008063FB60044AFB68536000BF1437BD46C2
:10137C0080BC7047001002400000014080B584B072
:10138C0000AF78607B681B68B3F1804F13D10C4BB6
:10139C00DB690B4A43F00103D361094BDB6903F0B2
:1013AC000103FB60FB68002200211C2000F0B1F956
:1013BC001C2000F0CAF900BF1037BD4680BD00BF2D
:1013CC000010024080B400AF00BFFDE780B400AF56
:1013DC0000BFFDE780B400AF00BFFDE780B400AFF5
:1013EC0000BFFDE780B400AF00BFFDE780B400AFE5
:1013FC0000BFBD4680BC704780B400AF00BFBD4687
:10140C0080BC704780B400AF00BFBD4680BC704745
:10141C0080B500AF00F08AF800BF80BD80B500AF8A
:10142C00024800F0F9FF00BF80BD00BF980000200B
:10143C0080B400AF00BFBD4680BC704780B500AF24
:10144C004FF40051024800F04EFB00BF80BD00BFBE
:10145C0000080140FFF7ECFF0B480C490C4A002335
:10146C0002E0D458C4500433C4188C42F9D3094A4E
:10147C00094C002301E013600432A242FBD301F0BB
:10148C0023FBFFF7BDFD7047000000204800002043
:10149C00602B00084800002034010020FEE700000B
:1014AC0080B500AF084B1B68074A43F0100313606C
:1014BC00032000F023F90F2000F008F8FFF72CFFB1
:1014CC000023184680BD00BF0020024080B582B0CA
:1014DC0000AF7860124B1A68124B1B7819464FF408
:1014EC007A73B3FBF1F3B2FBF3F3184600F03BF95C
:1014FC000346002B01D001230EE07B680F2B0AD88A
:10150C00002279684FF0FF3000F003F9064A7B683F
:10151C001360002300E0012318460837BD4680BD48
:10152C003C000020440000204000002080B400AFAC
:10153C00054B1B781A46054B1B681344034A136072
:10154C0000BFBD4680BC7047440000203001002025
:10155C0080B400AF024B1B681846BD4680BC704778
:10156C003001002080B485B000AF78607B6803F058
:10157C000703FB600C4BDB68BB60BA684FF6FF03DC
:10158C001340BB60FB681A02BB68134343F0BF6394
:10159C0043F40033BB60044ABB68D36000BF14370C
:1015AC00BD4680BC704700BF00ED00E080B400AFCA
:1015BC00044BDB681B0A03F007031846BD4680BCCE
:1015CC00704700BF00ED00E080B483B000AF03466D
:1015DC00FB7197F90730002B0BDBFB7903F01F0233
:1015EC00064997F907305B09012000FA02F241F82D
:1015FC00232000BF0C37BD4680BC704700E100E0E3
:10160C0080B483B000AF03463960FB7197F90730A3
:10161C00002B0ADB3B68DAB20C4997F90730120150
:10162C00D2B20B4483F800230AE03B68DAB20849D3
:10163C00FB7903F00F03043B1201D2B20B441A7670
:10164C0000BF0C37BD4680BC704700BF00E100E016
:10165C0000ED00E080B489B000AFF860B9607A604A
:10166C00FB6803F00703FB61FB69C3F10703042B61
:10167C0028BF0423BB61FB690433062B02D9FB6929
:10168C00033B00E000237B614FF0FF32BB6902FAA1
:10169C0003F3DA43BB681A407B699A404FF0FF3181
:1016AC007B6901FA03F3D9437B680B40134318465B
:1016BC002437BD4680BC704780B582B000AF7860DF
:1016CC007B68013BB3F1807F01D301230FE00A4A11
:1016DC007B68013B53600F214FF0FF30FFF790FF09
:1016EC00054B00229A60044B07221A60002318460F
:1016FC000837BD4680BD00BF10E000E080B582B069
:10170C0000AF78607868FFF72DFF00BF0837BD4643
:10171C0080BD80B586B000AF0346B9607A60FB73BC
:10172C0000237B61FFF742FF78617A68B9687869BA
:10173C00FFF790FF024697F90F3011461846FFF756
:10174C005FFF00BF1837BD4680BD80B582B000AFCB
:10175C000346FB7197F907301846FFF735FF00BFBA
:10176C000837BD4680BD80B582B000AF7860786820
:10177C00FFF7A2FF034618460837BD4680BD0000A0
:10178C0080B48BB000AF7860396000237B6200239B
:10179C003B6269E101227B6A02FA03F3FB613B685D
:1017AC001B68FA691340BB61BA69FB699A4240F045
:1017BC0058813B685B689A4A93425ED0984A934240
:1017CC0075D8984A934258D0964A93426FD8964A05
:1017DC00934252D0944A934269D8944A93424CD043
:1017EC00924A934263D8924A934246D0904A93428B
:1017FC005DD8122B2AD8122B59D801A252F823F0FB
:10180C00871800086118000873180008B51800083C
:10181C00BB180008BB180008BB180008BB18000850
:10182C00BB180008BB180008BB180008BB18000840
:10183C00BB180008BB180008BB180008BB18000830
:10184C00BB180008691800087D180008794A9342F3
:10185C0013D02CE03B68DB683B6229E03B68DB681B
:10186C0004333B6224E03B68DB6808333B621FE0D7
:10187C003B68DB680C333B621AE03B689B68002BCF
:10188C0002D104233B6213E03B689B68012B05D11A
:10189C0008233B627B68FA691A6109E008233B6202
:1018AC007B68FA695A6103E000233B6200E000BFE9
:1018BC00BB69FF2B01D87B6801E07B6804337B613B
:1018CC00BB69FF2B02D87B6A9B0002E07B6A083B5A
:1018DC009B003B617B691A680F213B6901FA03F39A
:1018EC00DB431A40396A3B6901FA03F31A437B69FB
:1018FC001A603B685B6803F08053002B00F0B180EA
:10190C004D4B9B694C4A43F0010393614A4B9B69D5
:10191C0003F00103BB60BB68484A7B6A9B08023337
:10192C0052F82330FB607B6A03F003039B000F2209
:10193C0002FA03F3DB43FA681340FB607B68404A0E
:10194C00934213D07B683F4A93420DD07B683E4A4A
:10195C00934207D07B683D4A934201D1032306E0B2
:10196C00042304E0022302E0012300E000237A6A4E
:10197C0002F0030292009340FA681343FB602F4974
:10198C007B6A9B080233FA6841F823203B685B684A
:10199C0003F48013002B06D02D4B9A682C49BB699D
:1019AC0013438B6006E02A4B9A68BB69DB432849DA
:1019BC0013408B603B685B6803F40013002B06D06C
:1019CC00234BDA682249BB691343CB6006E0204BFA
:1019DC00DA68BB69DB431E491340CB603B685B682C
:1019EC0003F40033002B06D0194B5A681849BB6915
:1019FC0013434B6006E0164B5A68BB69DB43144932
:101A0C0013404B603B685B6803F48033002B21D0A0
:101A1C000F4B1A680E49BB6913430B6021E000BFE2
:101A2C0000003210000031100000221000002110C4
:101A3C0000001210000011100010024000000140C4
:101A4C0000080140000C014000100140001401404E
:101A5C00000401400B4B1A68BB69DB430949134076
:101A6C000B607B6A01337B623B681A687B6A22FAE3
:101A7C0003F3002B7FF48EAE00BF00BF2C37BD46A6
:101A8C0080BC70470004014080B485B000AF786022
:101A9C000B467B807B689A687B881340002B02D0B6
:101AAC000123FB7301E00023FB73FB7B1846143707
:101ABC00BD4680BC704780B483B000AF78600B46E5
:101ACC007B8013467B707B78002B03D07A887B68F5
:101ADC001A6103E07B881A047B681A6100BF0C371B
:101AEC00BD4680BC704780B485B000AF78600B46B3
:101AFC007B807B68DB68FB607A88FB6813401A0488
:101B0C00FB68D9437B880B401A437B681A6100BF82
:101B1C001437BD4680BC704780B586B000AF786086
:101B2C007B68002B01D1012372E27B681B6803F0F8
:101B3C000103002B00F08780924B5B6803F00C03D1
:101B4C00042B0CD08F4B5B6803F00C03082B12D1C9
:101B5C008C4B5B6803F48033B3F5803F0BD1894B1E
:101B6C001B6803F40033002B6CD07B685B68002B84
:101B7C0068D101234CE27B685B68B3F5803F06D1EA
:101B8C00804B1B687F4A43F4803313602EE07B68E4
:101B9C005B68002B0CD17B4B1B687A4A23F4803397
:101BAC001360784B1B68774A23F4802313601DE085
:101BBC007B685B68B3F5A02F0CD1724B1B68714A24
:101BCC0043F4802313606F4B1B686E4A43F48033DD
:101BDC0013600BE06B4B1B686A4A23F48033136071
:101BEC00684B1B68674A23F4802313607B685B682F
:101BFC00002B13D0FFF7ACFC386108E0FFF7A8FC12
:101C0C0002463B69D31A642B01D9032300E25D4BD6
:101C1C001B6803F40033002BF0D014E0FFF798FCA2
:101C2C00386108E0FFF794FC02463B69D31A642B39
:101C3C0001D90323ECE1534B1B6803F40033002B55
:101C4C00F0D100E000BF7B681B6803F00203002B9F
:101C5C0063D04C4B5B6803F00C03002B0BD0494B4F
:101C6C005B6803F00C03082B1CD1464B5B6803F438
:101C7C008033002B16D1434B1B6803F00203002B5F
:101C8C0005D07B681B69012B01D00123C0E13D4BC2
:101C9C001B6823F0F8027B685B69DB00394913434E
:101CAC000B603AE07B681B69002B20D0364B01227D
:101CBC001A60FFF74DFC386108E0FFF749FC02465B
:101CCC003B69D31A022B01D90323A1E12D4B1B68CD
:101CDC0003F00203002BF0D02A4B1B6823F0F80210
:101CEC007B685B69DB00274913430B6015E0264BCF
:101CFC0000221A60FFF72CFC386108E0FFF728FC83
:101D0C0002463B69D31A022B01D9032380E11D4BF8
:101D1C001B6803F00203002BF0D17B681B6803F0F7
:101D2C000803002B3AD07B689B69002B19D0174B0A
:101D3C0001221A60FFF70CFC386108E0FFF708FC81
:101D4C0002463B69D31A022B01D9032360E10D4BE8
:101D5C005B6A03F00203002BF0D0012000F09CFA28
:101D6C001CE00A4B00221A60FFF7F2FB38610FE00F
:101D7C00FFF7EEFB02463B69D31A022B08D903236B
:101D8C0046E100BF00100240000042428004424283
:101D9C00924B5B6A03F00203002BE9D17B681B6852
:101DAC0003F00403002B00F0A6800023FB758B4B83
:101DBC00DB6903F08053002B0DD1884BDB69874A1C
:101DCC0043F08053D361854BDB6903F08053BB60D8
:101DDC00BB680123FB75824B1B6803F48073002BDB
:101DEC0018D17F4B1B687E4A43F480731360FFF756
:101DFC00AFFB386108E0FFF7ABFB02463B69D31A37
:101E0C00642B01D9032303E1754B1B6803F4807326
:101E1C00002BF0D07B68DB68012B06D16F4B1B6A63
:101E2C006E4A43F0010313622DE07B68DB68002BE4
:101E3C000CD16A4B1B6A694A23F001031362674B8E
:101E4C001B6A664A23F0040313621CE07B68DB68A0
:101E5C00052B0CD1614B1B6A604A43F004031362DF
:101E6C005E4B1B6A5D4A43F0010313620BE05B4B54
:101E7C001B6A5A4A23F001031362584B1B6A574AD8
:101E8C0023F0040313627B68DB68002B15D0FFF78B
:101E9C005FFB38610AE0FFF75BFB02463B69D31A34
:101EAC0041F28832934201D90323B1E04B4B1B6AB8
:101EBC0003F00203002BEED014E0FFF749FB38616E
:101ECC000AE0FFF745FB02463B69D31A41F2883220
:101EDC00934201D903239BE0404B1B6A03F002039E
:101EEC00002BEED1FB7D012B05D13C4BDB693B4A32
:101EFC0023F08053D3617B68DB69002B00F0878073
:101F0C00364B5B6803F00C03082B61D07B68DB69F4
:101F1C00022B46D1334B00221A60FFF719FB3861B4
:101F2C0008E0FFF715FB02463B69D31A022B01D9D7
:101F3C0003236DE0294B1B6803F00073002BF0D1D9
:101F4C007B681B6AB3F5803F08D1244B5B6823F494
:101F5C0000327B689B68214913434B601F4B5B68C5
:101F6C0023F474127B68196A7B685B6A0B431B4908
:101F7C0013434B601B4B01221A60FFF7E9FA3861DF
:101F8C0008E0FFF7E5FA02463B69D31A022B01D9A8
:101F9C0003233DE0114B1B6803F00073002BF0D0C2
:101FAC0035E0104B00221A60FFF7D2FA386108E0D6
:101FBC00FFF7CEFA02463B69D31A022B01D9032351
:101FCC0026E0064B1B6803F00073002BF0D11EE0DB
:101FDC007B68DB69012B07D1012319E0001002405B
:101FEC0000700040600042420B4B5B68FB60FB687A
:101FFC0003F480327B681B6A9A4206D1FB6803F4B7
:10200C0070127B685B6A9A4201D0012300E00023C6
:10201C0018461837BD4680BD0010024080B584B00C
:10202C0000AF786039607B68002B01D10123D0E0D0
:10203C006A4B1B6803F007033A689A4210D9674B46
:10204C001B6823F0070265493B6813430B60634B25
:10205C001B6803F007033A689A4201D00123B8E0E9
:10206C007B681B6803F00203002B20D07B681B6885
:10207C0003F00403002B05D0594B5B68584A43F41A
:10208C00E06353607B681B6803F00803002B05D0EA
:10209C00534B5B68524A43F460535360504B5B683C
:1020AC0023F0F0027B689B684D4913434B607B68BF
:1020BC001B6803F00103002B40D07B685B68012B8D
:1020CC0007D1474B1B6803F40033002B15D10123B8
:1020DC007FE07B685B68022B07D1414B1B6803F0E8
:1020EC000073002B09D1012373E03D4B1B6803F0F7
:1020FC000203002B01D101236BE0394B5B6823F009
:10210C0003027B685B68364913434B60FFF720FA88
:10211C00F8600AE0FFF71CFA0246FB68D31A41F29A
:10212C008832934201D9032353E02D4B5B6803F0B3
:10213C000C027B685B689B009A42EBD1274B1B68B7
:10214C0003F007033A689A4210D2244B1B6823F021
:10215C00070222493B6813430B60204B1B6803F0BA
:10216C0007033A689A4201D0012332E07B681B686E
:10217C0003F00403002B08D0194B5B6823F4E062D6
:10218C007B68DB68164913434B607B681B6803F064
:10219C000803002B09D0124B5B6823F460527B6858
:1021AC001B69DB000E4913434B6000F021F802461B
:1021BC000B4B5B681B0903F00F030A49CB5C22FA3B
:1021CC0003F3094A1360094B1B681846FFF77EF9A5
:1021DC00002318461037BD4680BD00BF00200240CA
:1021EC0000100240342B00083C000020400000206E
:1021FC0080B487B000AF0023FB600023BB600023DA
:10220C007B6100237B6000233B611E4B5B68FB60A2
:10221C00FB6803F00C03042B02D0082B03D027E03F
:10222C00194B3B6127E0FB689B0C03F00F03174A2B
:10223C00D35C7B60FB6803F48033002B10D0114B14
:10224C005B685B0C03F00103114AD35CBB607B68D9
:10225C000D4A03FB02F2BB68B2FBF3F37B6104E0B3
:10226C007B680C4A02FB03F37B617B693B6102E0F8
:10227C00054B3B6100BF3B6918461C37BD4680BC13
:10228C00704700BF0010024000127A00442B000877
:10229C00542B000800093D0080B485B000AF786075
:1022AC000A4B1B680A4AA2FB03235B0A7A6802FBEF
:1022BC0003F3FB6000BFFB685A1EFA60002BF9D1D8
:1022CC0000BF00BF1437BD4680BC70473C000020E7
:1022DC00D34D621080B582B000AF78607B68002B64
:1022EC0001D1012341E07B6893F83D30DBB2002B38
:1022FC0006D17B68002283F83C207868FFF73EF813
:10230C007B68022283F83D207B681A687B68043363
:10231C001946104600F05CFA7B68012283F84620CF
:10232C007B68012283F83E207B68012283F83F20E2
:10233C007B68012283F840207B68012283F84120CE
:10234C007B68012283F842207B68012283F84320BA
:10235C007B68012283F844207B68012283F84520A6
:10236C007B68012283F83D20002318460837BD46C0
:10237C0080BD000080B485B000AF78607B6893F8B6
:10238C003D30DBB2012B01D001233AE07B68022205
:10239C0083F83D207B681B68DA687B681B6842F019
:1023AC000102DA607B681B68184A93420ED07B6886
:1023BC001B68B3F1804F09D07B681B68144A9342A9
:1023CC0004D07B681B68134A934211D17B681B684D
:1023DC009B6803F00703FB60FB68062B10D07B683F
:1023EC001B681A687B681B6842F001021A6007E0E0
:1023FC007B681B681A687B681B6842F001021A60D4
:10240C00002318461437BD4680BC7047002C014091
:10241C00000400400008004080B584B000AF786034
:10242C007B681B68DB68FB607B681B681B69BB6097
:10243C00BB6803F00203002B20D0FB6803F00203FF
:10244C00002B1BD07B681B686FF002021A617B6843
:10245C0001221A777B681B689B6903F00303002B2E
:10246C0003D0786800F098F905E0786800F08BF9F3
:10247C00786800F09AF97B6800221A77BB6803F041
:10248C000403002B20D0FB6803F00403002B1BD0AB
:10249C007B681B686FF004021A617B6802221A7752
:1024AC007B681B689B6903F44073002B03D078682E
:1024BC0000F072F905E0786800F065F9786800F0D2
:1024CC0074F97B6800221A77BB6803F00803002BB1
:1024DC0020D0FB6803F00803002B1BD07B681B6823
:1024EC006FF008021A617B6804221A777B681B68FC
:1024FC00DB6903F00303002B03D0786800F04CF980
:10250C0005E0786800F03FF9786800F04EF97B68D8
:10251C0000221A77BB6803F01003002B20D0FB6855
:10252C0003F01003002B1BD07B681B686FF01002AC
:10253C001A617B6808221A777B681B68DB6903F4D5
:10254C004073002B03D0786800F026F905E078681A
:10255C0000F019F9786800F028F97B6800221A77E6
:10256C00BB6803F00103002B0CD0FB6803F00103E4
:10257C00002B07D07B681B686FF001021A6178682A
:10258C00FEF764FEBB6803F08003002B0CD0FB68E5
:10259C0003F08003002B07D07B681B686FF0800270
:1025AC001A61786800F07FFABB6803F04003002BD7
:1025BC000CD0FB6803F04003002B07D07B681B6832
:1025CC006FF040021A61786800F0F8F8BB6803F00D
:1025DC002003002B0CD0FB6803F02003002B07D04A
:1025EC007B681B686FF020021A61786800F052FA61
:1025FC0000BF1037BD4680BD80B584B000AF786099
:10260C0039600023FB737B6893F83C30012B01D1BC
:10261C000223B4E07B68012283F83C207B68022211
:10262C0083F83D207B681B689B68BB60BB6823F00C
:10263C007703BB60BB6823F47F43BB607B681B687C
:10264C00BA689A603B681B68B3F5005F3ED0B3F57F
:10265C00005F00F28780B3F5805F00F08680B3F5F1
:10266C00805F7FD8702B1AD0702B7BD8602B50D00A
:10267C00602B77D8502B3CD0502B73D8402B58D094
:10268C00402B6FD8302B64D0302B6BD8202B60D0E4
:10269C00202B67D8002B5CD0102B5AD062E07B68C3
:1026AC0018683B6899683B685A683B68DB6800F0BF
:1026BC0074F97B681B689B68BB60BB6843F077034D
:1026CC00BB607B681B68BA689A604FE07B681868CF
:1026DC003B6899683B685A683B68DB6800F05DF9B9
:1026EC007B681B689A687B681B6842F480429A601E
:1026FC003CE07B6818683B6859683B68DB681A46A5
:10270C0000F0D4F87B681B685021184600F02BF9B8
:10271C002CE07B6818683B6859683B68DB681A4694
:10272C0000F0F2F87B681B686021184600F01BF97A
:10273C001CE07B6818683B6859683B68DB681A4684
:10274C0000F0B4F87B681B684021184600F00BF9C8
:10275C000CE07B681A683B681B681946104600F051
:10276C0002F903E00123FB7300E000BF7B68012248
:10277C0083F83D207B68002283F83C20FB7B1846C5
:10278C001037BD4680BD80B483B000AF786000BF09
:10279C000C37BD4680BC704780B483B000AF786006
:1027AC0000BF0C37BD4680BC704780B483B000AF0F
:1027BC00786000BF0C37BD4680BC704780B483B0D6
:1027CC0000AF786000BF0C37BD4680BC704700007E
:1027DC0080B485B000AF786039607B681B68FB60A3
:1027EC007B682F4A93420BD07B68B3F1804F07D0A4
:1027FC007B682C4A934203D07B682B4A934208D1C6
:10280C00FB6823F07003FB603B685B68FA6813435A
:10281C00FB607B68224A93420BD07B68B3F1804FFC
:10282C0007D07B681F4A934203D07B681E4A9342B1
:10283C0008D1FB6823F44073FB603B68DB68FA68E3
:10284C001343FB60FB6823F080023B685B69134316
:10285C00FB607B68FA681A603B689A687B68DA628E
:10286C003B681A687B689A627B680D4A934203D175
:10287C003B681A697B681A637B6801225A617B6822
:10288C001B6903F00103002B05D07B681B6923F047
:10289C0001027B681A6100BF1437BD4680BC7047CB
:1028AC00002C0140000400400008004080B487B0B8
:1028BC0000AFF860B9607A60FB681B6A7B61FB68EB
:1028CC001B6A23F00102FB681A62FB689B693B617F
:1028DC003B6923F0F0033B617B681B013A691343AE
:1028EC003B617B6923F00A037B617A69BB68134304
:1028FC007B61FB683A699A61FB687A691A6200BF6E
:10290C001C37BD4680BC704780B487B000AFF86000
:10291C00B9607A60FB681B6A7B61FB681B6A23F0F9
:10292C001002FB681A62FB689B693B613B6923F4EC
:10293C0070433B617B681B033A6913433B617B69C2
:10294C0023F0A0037B61BB681B017A6913437B6195
:10295C00FB683A699A61FB687A691A6200BF1C3796
:10296C00BD4680BC704780B485B000AF78603960DC
:10297C007B689B68FB60FB6823F07003FB603A6824
:10298C00FB68134343F00703FB607B68FA689A60AB
:10299C0000BF1437BD4680BC704780B487B000AF11
:1029AC00F860B9607A603B60FB689B687B617B690F
:1029BC0023F47F437B613B681A027B681A43BB6834
:1029CC0013437A6913437B61FB687A699A6000BF91
:1029DC001C37BD4680BC704780B485B000AF7860B2
:1029EC0039607B6893F83C30012B01D1022346E01F
:1029FC007B68012283F83C207B68022283F83D200F
:102A0C007B681B685B68FB607B681B689B68BB60B2
:102A1C00FB6823F07003FB603B681B68FA68134388
:102A2C00FB607B681B68FA685A607B681B68164AF7
:102A3C0093420ED07B681B68B3F1804F09D07B6842
:102A4C001B68124A934204D07B681B68104A93425D
:102A5C000CD1BB6823F08003BB603B685B68BA6831
:102A6C001343BB607B681B68BA689A607B68012261
:102A7C0083F83D207B68002283F83C200023184615
:102A8C001437BD4680BC7047002C01400004004048
:102A9C000008004080B483B000AF786000BF0C37F2
:102AAC00BD4680BC704780B483B000AF786000BF77
:102ABC000C37BD4680BC704703460244934200D19C
:102ACC00704703F8011BF9E770B500260C4D0D4C4F
:102ADC00641BA410A64209D100F01AF800260A4D76
:102AEC000A4C641BA410A64205D170BD55F8043BDA
:102AFC0098470136EEE755F8043B98470136F2E764
:102B0C00582B0008582B0008582B00085C2B000889
:102B1C00F8B500BFF8BC08BC9E467047F8B500BFBE
:082B2C00F8BC08BC9E4670478E
:102B34000000000000000000010203040607080969
:102B440002030405060708090A0B0C0D0E0F1010EA
:042B5400010200007A
:042B5800310100083F
:042B5C000D0100085F
:102B6000FA000000F4010000010000000100000074
:102B70000100000001000000010000000100000051
:102B80000100000001000000010000000100000041
:102B900001000000010000000A00000000127A009D
:082BA00010000000010000001C
:04000005080014617A
:00000001FF
